{
  "_format": "hh-sol-artifact-1",
  "contractName": "Donate",
  "sourceName": "contracts/Donate.sol",
  "abi": [
    {
      "inputs": [],
      "stateMutability": "nonpayable",
      "type": "constructor"
    },
    {
      "inputs": [],
      "name": "get_All_Payers",
      "outputs": [
        {
          "components": [
            {
              "internalType": "string",
              "name": "name",
              "type": "string"
            },
            {
              "internalType": "string",
              "name": "message",
              "type": "string"
            },
            {
              "internalType": "uint256",
              "name": "timestamp",
              "type": "uint256"
            },
            {
              "internalType": "uint256",
              "name": "value",
              "type": "uint256"
            },
            {
              "internalType": "address",
              "name": "from",
              "type": "address"
            }
          ],
          "internalType": "struct Donate.Payer[]",
          "name": "",
          "type": "tuple[]"
        }
      ],
      "stateMutability": "view",
      "type": "function"
    },
    {
      "inputs": [
        {
          "internalType": "string",
          "name": "name",
          "type": "string"
        },
        {
          "internalType": "string",
          "name": "message",
          "type": "string"
        }
      ],
      "name": "send_ETH",
      "outputs": [],
      "stateMutability": "payable",
      "type": "function"
    }
  ],
  "bytecode": "0x608060405234801561001057600080fd5b5033600160006101000a81548173ffffffffffffffffffffffffffffffffffffffff021916908373ffffffffffffffffffffffffffffffffffffffff160217905550610cc2806100616000396000f3fe6080604052600436106100295760003560e01c806340814d051461002e578063aaa20e2f14610059575b600080fd5b34801561003a57600080fd5b50610043610075565b60405161005091906106bc565b60405180910390f35b610073600480360381019061006e9190610827565b610262565b005b60606000805480602002602001604051908101604052809291908181526020016000905b8282101561025957838290600052602060002090600502016040518060a00160405290816000820180546100cc906108ce565b80601f01602080910402602001604051908101604052809291908181526020018280546100f8906108ce565b80156101455780601f1061011a57610100808354040283529160200191610145565b820191906000526020600020905b81548152906001019060200180831161012857829003601f168201915b5050505050815260200160018201805461015e906108ce565b80601f016020809104026020016040519081016040528092919081815260200182805461018a906108ce565b80156101d75780601f106101ac576101008083540402835291602001916101d7565b820191906000526020600020905b8154815290600101906020018083116101ba57829003601f168201915b5050505050815260200160028201548152602001600382015481526020016004820160009054906101000a900473ffffffffffffffffffffffffffffffffffffffff1673ffffffffffffffffffffffffffffffffffffffff1673ffffffffffffffffffffffffffffffffffffffff168152505081526020019060010190610099565b50505050905090565b600160009054906101000a900473ffffffffffffffffffffffffffffffffffffffff1673ffffffffffffffffffffffffffffffffffffffff163373ffffffffffffffffffffffffffffffffffffffff16036102f2576040517f08c379a00000000000000000000000000000000000000000000000000000000081526004016102e990610982565b60405180910390fd5b60003411610335576040517f08c379a000000000000000000000000000000000000000000000000000000000815260040161032c906109ee565b60405180910390fd5b600160009054906101000a900473ffffffffffffffffffffffffffffffffffffffff1673ffffffffffffffffffffffffffffffffffffffff166108fc349081150290604051600060405180830381858888f1935050505015801561039d573d6000803e3d6000fd5b5060006040518060a001604052808481526020018381526020014281526020013481526020013373ffffffffffffffffffffffffffffffffffffffff168152509080600181540180825580915050600190039060005260206000209060050201600090919091909150600082015181600001908161041b9190610bba565b5060208201518160010190816104319190610bba565b50604082015181600201556060820151816003015560808201518160040160006101000a81548173ffffffffffffffffffffffffffffffffffffffff021916908373ffffffffffffffffffffffffffffffffffffffff16021790555050505050565b600081519050919050565b600082825260208201905092915050565b6000819050602082019050919050565b600081519050919050565b600082825260208201905092915050565b60005b838110156104f95780820151818401526020810190506104de565b60008484015250505050565b6000601f19601f8301169050919050565b6000610521826104bf565b61052b81856104ca565b935061053b8185602086016104db565b61054481610505565b840191505092915050565b6000819050919050565b6105628161054f565b82525050565b600073ffffffffffffffffffffffffffffffffffffffff82169050919050565b600061059382610568565b9050919050565b6105a381610588565b82525050565b600060a08301600083015184820360008601526105c68282610516565b915050602083015184820360208601526105e08282610516565b91505060408301516105f56040860182610559565b5060608301516106086060860182610559565b50608083015161061b608086018261059a565b508091505092915050565b600061063283836105a9565b905092915050565b6000602082019050919050565b600061065282610493565b61065c818561049e565b93508360208202850161066e856104af565b8060005b858110156106aa578484038952815161068b8582610626565b94506106968361063a565b925060208a01995050600181019050610672565b50829750879550505050505092915050565b600060208201905081810360008301526106d68184610647565b905092915050565b6000604051905090565b600080fd5b600080fd5b600080fd5b600080fd5b7f4e487b7100000000000000000000000000000000000000000000000000000000600052604160045260246000fd5b61073482610505565b810181811067ffffffffffffffff82111715610753576107526106fc565b5b80604052505050565b60006107666106de565b9050610772828261072b565b919050565b600067ffffffffffffffff821115610792576107916106fc565b5b61079b82610505565b9050602081019050919050565b82818337600083830152505050565b60006107ca6107c584610777565b61075c565b9050828152602081018484840111156107e6576107e56106f7565b5b6107f18482856107a8565b509392505050565b600082601f83011261080e5761080d6106f2565b5b813561081e8482602086016107b7565b91505092915050565b6000806040838503121561083e5761083d6106e8565b5b600083013567ffffffffffffffff81111561085c5761085b6106ed565b5b610868858286016107f9565b925050602083013567ffffffffffffffff811115610889576108886106ed565b5b610895858286016107f9565b9150509250929050565b7f4e487b7100000000000000000000000000000000000000000000000000000000600052602260045260246000fd5b600060028204905060018216806108e657607f821691505b6020821081036108f9576108f861089f565b5b50919050565b600082825260208201905092915050565b7f596f752063616e6e6f742073656e642045746865727320746f20796f7572736560008201527f6c66000000000000000000000000000000000000000000000000000000000000602082015250565b600061096c6022836108ff565b915061097782610910565b604082019050919050565b6000602082019050818103600083015261099b8161095f565b9050919050565b7f506c6561736520506179204d6f7265207468616e203020455448000000000000600082015250565b60006109d8601a836108ff565b91506109e3826109a2565b602082019050919050565b60006020820190508181036000830152610a07816109cb565b9050919050565b60008190508160005260206000209050919050565b60006020601f8301049050919050565b600082821b905092915050565b600060088302610a707fffffffffffffffffffffffffffffffffffffffffffffffffffffffffffffffff82610a33565b610a7a8683610a33565b95508019841693508086168417925050509392505050565b6000819050919050565b6000610ab7610ab2610aad8461054f565b610a92565b61054f565b9050919050565b6000819050919050565b610ad183610a9c565b610ae5610add82610abe565b848454610a40565b825550505050565b600090565b610afa610aed565b610b05818484610ac8565b505050565b5b81811015610b2957610b1e600082610af2565b600181019050610b0b565b5050565b601f821115610b6e57610b3f81610a0e565b610b4884610a23565b81016020851015610b57578190505b610b6b610b6385610a23565b830182610b0a565b50505b505050565b600082821c905092915050565b6000610b9160001984600802610b73565b1980831691505092915050565b6000610baa8383610b80565b9150826002028217905092915050565b610bc3826104bf565b67ffffffffffffffff811115610bdc57610bdb6106fc565b5b610be682546108ce565b610bf1828285610b2d565b600060209050601f831160018114610c245760008415610c12578287015190505b610c1c8582610b9e565b865550610c84565b601f198416610c3286610a0e565b60005b82811015610c5a57848901518255600182019150602085019450602081019050610c35565b86831015610c775784890151610c73601f891682610b80565b8355505b6001600288020188555050505b50505050505056fea26469706673582212207e717b065b1bc2c3fa784b0a93d3a9210c6459fa3269ad6070a23be0f91b05b064736f6c63430008110033",
  "linkReferences": {},
  "deployedLinkReferences": {}
}